:020000040800F2
:100000008009002051150008251300082713000857
:100010002B1300082F130008331300080000000002
:10002000000000000000000000000000371300087E
:1000300039130008000000003B1300083D130008BE
:100040006B1500086B1500086B1500086B15000890
:100050006B1500086B15000881190108AD1901081E
:100060006B1500086B1500086B1500086B15000870
:100070006B1500086B1500086B1500086B15000860
:100080006B1500086B1500086B1500086B15000850
:100090006B1500086B1500086B1500086B15000840
:1000A0006B150008571501086B150008C7150108E6
:1000B000593E00086B1500086B1500086B15000809
:1000C0006B1500086B1500086B1500086B15000810
:1000D0006B150008CD3A00087F3B0008233C000860
:1000E0006B1500086B1500086B1500086B150008F0
:1000F0006B1500086B1500086B1500086B150008E0
:100100006B1500086B1500086B1500086B150008CF
:100110006B1500086B1500086B150008E53D00081D
:100120006B1500086B1500086B1500086B150008AF
:100130006B1500086B1500086B1500086B1500089F
:100140006B1500086B1500086B1500086B1500088F
:100150006B1500086B1500086B1500086B1500087F
:100160006B1500086B1500086B1500086B1500086F
:100170006B1500086B1500086B1500086B1500085F
:100180006B1500086B15000800F002F800F041F84C
:100190000AA090E8000C82448344AAF10107DA45E2
:1001A00001D100F036F8AFF2090EBAE80F0013F0F3
:1001B000010F18BFFB1A43F001031847544E01000A
:1001C000744E0100103A24BF78C878C1FAD852079B
:1001D00024BF30C830C144BF04680C6070470000C1
:1001E0000023002400250026103A28BF78C1FBD840
:1001F000520728BF30C148BF0B607047782911F003
:100200002F84002070471FB513F019FA1FBD10B5D9
:1002100010BD11F0EFFC1146FFF7F5FF00F008F8F4
:1002200011F00DFD03B4FFF7F2FF03BC03F04CFB2C
:100230001CB500260027002500244FF4A06001F023
:10024000A7F90A20FB4908700020FB490870FB4908
:100250000870A82003F0B6FA4FF4165003F042FBE2
:1002600009F050FE11F0EAF804F06DFE08F0F7FC1A
:1002700003F04AFF11F002F910F0BBFE0AF086F914
:100280000AF0A0F911F0B2FA0AF0BCF90721EC4823
:1002900002F0B9FC0AF018F942F2CF01632003F032
:1002A00073FD11F0C3FAFDE311F01CFA06460027B6
:1002B00000260020E149087064E0E2A010210B460E
:1002C000C822CDE900105100E62008F095FC11F09D
:1002D00009FA0646622E37D003DC3EB1222E43D106
:1002E00024E0A82E0FD0C22E3ED100E03CE0D8A0E2
:1002F00010210B46C822CDE900105100E62008F07D
:100300007BFC012730E0D5A010210B46C822CDE9A7
:1003100000105100E62008F06FFCC848007820B1BA
:10032000C6480078401EC54908701DE0CEA01021C7
:100330000B46C822CDE900105100E62008F05CFC15
:100340000020BE4908700FE0CAA010210B46C82249
:10035000CDE900105100E62008F04EFCB7480078C7
:10036000401CB649087000BF00BF10200423009055
:10037000B24802784FF4A0714FF4947008F093FBE8
:1003800007B100E099E700BF002700264FE011F019
:10039000A9F90646622E30D003DC3EB1222E39D1B7
:1003A0001FE0A82E0FD0C22E34D100E032E0B4A05E
:1003B00010210B46C822CDE900105100E62008F0BC
:1003C0001BFC012726E0B1A010210B46C822CDE975
:1003D00000105100E62008F00FFC0DB1681EC5B2F8
:1003E00018E0A1A010210B46C822CDE90010510051
:1003F000E62008F001FC00250CE0A6A010210B4629
:10040000C822CDE900105100E62008F0F5FB681C79
:10041000C5B200BF00BF102004232A464FF4AA71C2
:1004200000904FF4947008F03EFB07B100E0AEE797
:1004300000BF0027002661E011F054F90646A22E05
:1004400049D005DC4EB1222E27D0622E48D132E0B1
:10045000A82E0FD0C22E43D100E041E08FA0102182
:100460000B46C822CDE900105100E62008F0C4FB7D
:10047000012735E08CA010210B46C822CDE90010E1
:100480005100E62008F0B8FB6B48007820B16A48BC
:100490000078401E6849087022E073A010210B46C6
:1004A000C822CDE900105100E62008F0A5FB00208D
:1004B0006149087014E07FA010210B46C822CDE9E5
:1004C00000105100E62008F097FB5B480078401CC4
:1004D0005949087004E0012763205849087000BF9B
:1004E00000BF102004230090534802784FF4B471E9
:1004F0004FF4947008F0D7FA07B100E09CE700BF12
:1005000009F0E2FF4D4800780A287CD2DFE810F0BD
:100510000A002701B401450271033904520551064E
:10052000550663060A2D0AD2DFE805F0050A1520F4
:100530002BF5F9FCEEEDB3EE0E0A0AF010FF0CE11C
:100540000AF09CFC5E48006808B9012000E0002029
:100550005B49086001E10AF0F4FC5948006808B9F9
:10056000012000E0002056490860F6E00AF060F83B
:100570005348006808B9012000E000205049086095
:10058000EBE0C5E0002411F0ADF80646682E0ED071
:1005900006DC102E4AD0182E49D0302E0DD13AE06C
:1005A0007A2E45D0982E09D0B02E06D10DE001202C
:1005B00009F0FCFE002042490860A1E0002009F09B
:1005C000F5FE01203E4908609AE0002009F0EEFEA9
:1005D00047F2305003F058F980213A4801F0B6FC58
:1005E00000203749091D086042F2107003F04CF9F1
:1005F00042F2107003F048F942F2107003F044F92F
:100600008021304800E036E201F0A2FC01202E49B2
:10061000C1F8A80274E040F29E712C4802F0F1FA91
:1006200040F69671294802F0EEFA69E066E04FE084
:1006300059E000000000002001000020020000201E
:10064000000C00406368656E6778753A0000000032
:100650007169753A20202020000000006368656EF3
:100660006778752D00000000636C656172202020A2
:10067000000000006368656E6778752B000000005D
:100680006368616E67646920202000007169752DC0
:10069000000000007169752B000000007374617226
:1006A00074202020000000006368616E6764692D7B
:1006B000000000006368616E6764692B0000000041
:1006C000A4824242001802400080424200400140A1
:1006D00040F69671FB4802F094FA40F6B831F948BA
:1006E00002F091FA0CE040F69671F64802F089FAB1
:1006F00040F69671F34802F086FA00BF012400BF6D
:1007000000BF2CB105E021E01DE00BE007E002E0B6
:1007100038E700BF21E028460DF098FE1DE00EF0FE
:1007200041FE1AE09FEDE81AF0EE040AB7EE000A67
:100730000BF0D7FE9FEDE41AF0EE0C0AB0EE040ABF
:100740000BF0CFFE09E010F024F906E04AF20F4169
:1007500042F2107003F0ECFA00BF00BF8BE10024FE
:1007600011E09FEDD90A09F084FE9FEDD70A09F048
:1007700055FE9FEDD50A09F026FE47F2305003F0F2
:1007800083F8601C04B2122CEBDB012009F00EFE92
:10079000CE480078012808D19FEDCD1ADFEDCD0AB3
:1007A0009FEDC90A0BF09DFE0BE0C84800780228B7
:1007B00007D19FEDC91ADFEDC70A9FEDC30A0BF001
:1007C00090FE0AF01DFC00B1C8E7012009F0EEFD23
:1007D0009FEDBD1AF1EE020A9FEDBB0A0BF081FE00
:1007E00028460EF040F9BD4890ED000AB5EEC00A6B
:1007F000F1EE10FA11DDB5480078012804D19FED23
:10080000B80A0AF0ACFD19E0B0480078022815D10A
:100810009FEDB40A0AF0A3FD10E0AC48007801286F
:1008200004D19FEDB10A0AF09AFD07E0A7480078CD
:10083000022803D19FEDA80A0AF091FD0AF0E0FB1F
:1008400000B18BE7A1480078012808D19FED9E1ADE
:10085000DFEDA60A9FEDA60A0BF043FE0BE09B48D6
:100860000078022807D19FED981ADFED970A9FEDD7
:10087000960A0BF036FE71E7002411E09FED920A14
:1008800009F0F7FD9FED900A09F0C8FD9FED8E0A73
:1008900009F099FD47F2305002F0F6FF601C04B2F7
:1008A000122CEBDB012009F081FD9FED871AF0EEA1
:1008B000080A9FED850A0BF014FE0FF074FA8D48BC
:1008C000007808B10FF046FB28460EF0CCF87F48C0
:1008D0000078012804D19FED840A0AF040FD07E06A
:1008E0007A480078022803D19FED830A0AF037FD89
:1008F0000AF086FB00B1BEE0012009F057FD7D48FB
:100900000078012810D171480078012804D19FEDAA
:100910007B0A0AF024FD07E06C480078022803D126
:100920009FED770A0AF01BFD72480178012010F054
:1009300060FC28460EF097F8684890ED011AF7EE33
:10094000001A31EE611AF0EE410A90ED001AB0EE95
:10095000410A9FED5D1A0BF0C4FD0AF051FB00B196
:1009600089E09FED680A5D4880ED100A90ED010A6C
:10097000F0EE400A9FED541A9FED530A0BF0B1FDC3
:1009800042F2107002F080FF9FED4F1ADFED4E0A29
:100990009FED4D0A0BF0A5FD6DE0002411E09FEDE9
:1009A0004A0A09F066FD9FED480A09F037FD9FED00
:1009B000460A09F008FD47F2305002F065FF601C5E
:1009C00004B2122CEBDB012009F0F0FC9FED3E1A83
:1009D000DFED4D0A9FED3C0A09F0F7FF3F48D0EDEF
:1009E0000C0AB0EE600A09F044FD3C48D0ED0D0A57
:1009F000B0EE600A09F012FD3848D0ED0E0AB0EEF4
:100A0000600A09F0E0FC49F6404002F03DFF2F4843
:100A10000078012808D19FED3D1AF0EE000A9FED05
:100A20003C0A0BF05EFD0BE028480078022807D155
:100A30009FED381AF0EE000A9FED370A0BF051FDDA
:100A400028460EF010F8254890ED011AF7EE001A2E
:100A500031EE611AF0EE410A90ED001AB0EE410A53
:100A60009FED191A0BF03DFD47F2305002F00CFFDC
:100A70000AF0C6FA00B180E2012009F097FC17489D
:100A800090ED011ADFED251A31EE211AF0EE410A40
:100A900090ED001AB0EE410A9FED0B1A0BF021FD0C
:100AA0000A4800E0FEE3007801283BD10B4890EDB6
:100AB000010AF0EE400A9FED1A1AB2EE010A0BF09D
:100AC00010FD3EE000400140000000000100002059
:100AD000000096439A99A94000008C42D802002059
:100AE00000008C430000B44200009143CDCC4CBECA
:100AF000CDCCCCBD000000200000A042000061432E
:100B000000000743CDCC4CBD0000C84300809D438E
:100B10009A997940000034429A9979C06666A63F56
:100B200000003443FE48007802280AD1FD4890EDC9
:100B3000010AF0EE400A1FED061ABAEE010A0BF0A8
:100B4000D0FCF848D0ED000AB0EE600A1FED0C1A98
:100B5000F0EE040A0BF0C5FC0FF030FCF048007812
:100B6000012811D1EF4890ED011AF6EE001A31EE8E
:100B7000611AF0EE410A90ED001AB0EE410AB3EEB0
:100B80000E1A0BF0AEFC14E0E5480078022810D1F4
:100B9000E44890ED011AF6EE001A31EE611AF0EE1B
:100BA000410A90ED001AB0EE410A9FEDDF1A0BF0FA
:100BB00098FC0AF025FA00B197E31FED2E0AD948F8
:100BC00080ED100A90ED010AF0EE400A1FED421A86
:100BD0001FED430A0BF085FC42F2107002F054FE48
:100BE0001FED471A5FED480A1FED490A0BF079FC2B
:100BF0007BE3002411E01FED4C0A09F03AFC1FEDE5
:100C00004E0A09F00BFC1FED500A09F0DCFB47F21D
:100C1000305002F039FE601C04B2122CEBDB4AF2B9
:100C20000F4142F2107003F083F8012009F0BEFB7F
:100C3000BB480078012808D19FEDBC1AF1EE0C0AE0
:100C4000B1EE0C0A0BF04DFC0BE0B5480078022821
:100C500007D11FED5C1AF1EE0C0AB9EE0C0A0BF08D
:100C600040FC0FF096FE0AF0CBF900B13DE3012005
:100C700009F09CFBAA480078012808D11FED671AEB
:100C8000F1EE0C0AB0EE040A0BF02BFC0BE0A448CA
:100C90000078022807D19FEDA51AF1EE0C0AB8EEF4
:100CA000040A0BF01EFC0FF019FAA1480078022884
:100CB00001D00FF0E4FA9E48007802282AD1984823
:100CC0000078012811D1974890ED011AF0EE410A01
:100CD00090ED001AF6EE001A31EE611AB0EE410AFC
:100CE0001FED791A0BF0FDFB14E08D480078022807
:100CF00010D18C4890ED011AF0EE410A90ED001AE7
:100D0000F6EE001A31EE211AB0EE410A1FED851AF7
:100D10000BF0E7FB28460DF0A6FE8548007810F0A2
:100D200015FA7F480078012808D19FED801AF1EE6E
:100D30000C0AB1EE0C0A0BF0D4FB0BE078480078FB
:100D4000022807D11FED991AF1EE0C0AB9EE0C0A30
:100D50000BF0C7FB0FF01DFE0AF052F900B1C4E220
:100D60001FEDA71AF0EE000A1FEDA90A0BF0B9FB60
:100D70001FEDAB1A5FEDAC0A1FEDA30A0BF0B1FB40
:100D8000B3E2002411E01FEDB00A09F072FB1FED81
:100D9000B20A09F043FB1FEDB40A09F014FB47F255
:100DA000305002F071FD601C04B2122CEBDB4AF2F1
:100DB0000F4142F2107002F0BBFF012009F0F6FA79
:100DC0001FEDBF1AF0EE0C0A1FEDC10A0BF089FBF4
:100DD0000EF0E9FF5648007808B10FF0BBF828463E
:100DE0000DF041FE52480078012810D14C4800789F
:100DF000012804D11FEDBF0A0AF0B1FA07E0484804
:100E00000078022803D11FEDC20A0AF0A8FA484868
:100E1000007810F00AF94248007801280CD19FEDC3
:100E2000430A0AF09CFA9FED411AF1EE0C0AB1EE6A
:100E30000C0A0BF0BDFF0FE03948007802280BD1F7
:100E40001FEDD80A0AF08BFA1FEDDA1AF1EE0C0A40
:100E5000B9EE0C0A0BF0ACFF0FF09BFD0AF0D0F8D6
:100E600000B142E2012009F0A1FA2D4800780128E2
:100E700010D11FEDDD0A0AF072FA1FEDDF1ADFED67
:100E80002D0A9FED2D0A0BF093FF1FEDE00A0AF0EB
:100E900066FA13E02248007802280FD11FEDE90A14
:100EA0000AF05DFA1FEDEB1ADFED220A9FED230A2F
:100EB0000BF07EFF1FEDE90A0AF051FA28460DF00B
:100EC000D2FD17480078012811D1164890ED011A7B
:100ED000F6EE001A31EE211AF0EE410A90ED001AFA
:100EE000B0EE410A1FEDF71A0BF0FBFA14E00C48C4
:100EF0000078022810D10B4890ED011AF6EE001A86
:100F000031EE211AF0EE410A90ED001AB0EE410ADE
:100F10009FED0B1A0BF0E5FA01480078012811E06B
:100F200001000020D80200200000A54300008743F4
:100F3000000000203333334066668640666686C014
:100F40000000344208D11FED071AF1EE0C0AB1EE91
:100F50000C0A0BF0C6FA0BE0E5480078022807D12E
:100F60009FEDE41AF1EE0C0AB9EE0C0A0BF0B9FA97
:100F70000FF00FFD0AF044F800B1B6E1DE48D0ED05
:100F8000000AB0EE600A9FEDDD1AF0EE000A0BF0E9
:100F9000A8FA9FEDDA1AF0EE000A9FEDD80A0BF0DE
:100FA000A0FA9FEDD61ADFEDD50A9FEDD40A0BF01B
:100FB00098FA9AE1002411E09FEDD00A09F059FA5D
:100FC0009FEDCE0A09F02AFA9FEDCC0A09F0FBF951
:100FD00047F2305002F058FC601C04B2122CEBDBDC
:100FE0004AF20F4142F2107002F0A2FE012009F015
:100FF000DDF99FEDC21ADFEDC20A9FEDC00A09F0CC
:10100000E4FCBD48D0ED0C0AB0EE600A09F031FAFC
:10101000B948D0ED0D0AB0EE600A09F0FFF9B64804
:10102000D0ED0E0AB0EE600A09F0CDF944F620606A
:1010300002F02AFCAE480078012808D19FEDB11AD1
:10104000DFEDB10AB1EE000A0BF04BFA0BE0A84855
:101050000078022807D11FED461ADFEDAB0AB9EE82
:10106000000A0BF03EFA28460DF0FDFCA04800787F
:10107000012814D1A04890ED011ADFEDA41A31EE39
:10108000211AF0EE410A90ED001AF6EE001A31EE48
:10109000211AB0EE410A9FED991A0BF022FA9448FA
:1010A0000078022814D1944890ED011ADFED971AC8
:1010B00031EE211AF0EE410A90ED001AF6EE001A18
:1010C00031EE611AB0EE410A9FED8C1A0BF009FA6D
:1010D00087480078012808D11FED6C1AF1EE0C0A40
:1010E000B2EE000A0BF0FDF90BE08148007802280F
:1010F00007D19FED801AF1EE0C0ABAEE000A0BF050
:10110000F0F90FF046FC09F07BFF00B1EDE00120A3
:1011100009F04CF976480078012808D19FED7C1A37
:10112000F0EE000AB2EE030A0BF0DBF90BE07048B8
:101130000078022807D19FED761AF0EE000ABAEE89
:10114000030A0BF0CEF90FF039F96948007801284D
:1011500008D11FED8A1AF1EE0C0AB2EE000A0BF06C
:10116000C0F90BE062480078022807D19FED611AB0
:10117000F1EE0C0ABAEE000A0BF0B3F90FF009FC1D
:1011800009F03EFF00B1B0E09FED5C1AF0EE080AF6
:101190009FED5A0A0BF0A5F947F2305002F074FBAC
:1011A0009FED561ADFED5B0A9FED540A0BF099F99B
:1011B0009BE001200DF057FC97E09FED4E1AF1EEF9
:1011C0000C0A9FED550A0BF08CF90EF087FF2846AC
:1011D0000DF049FC00BF012009F0E8F89FED471A27
:1011E000DFED470A9FED450A09F0EFFB4248D0EDDD
:1011F0000C0AB0EE600A09F03CF93F48D0ED0D0A48
:10120000B0EE600A09F00AF93B48D0ED0E0AB0EEE4
:10121000600A09F0D8F844F6206002F035FB9FED33
:10122000391AF0EE000A9FED3D0A0BF05AF947F229
:10123000305002F029FB47F2305002F025FB2E48D7
:1012400090ED011AF7EE001A31EE611AF0EE410A44
:1012500090ED001AB0EE410A9FED281A0BF041F90B
:1012600047F2305002F010FB47F2305002F00CFB16
:10127000012009F09BF89FED261AF0EE080AB2EE65
:10128000060A0BF02EF947F2305002F0FDFA47F251
:10129000305002F0F9FAB3EE0E0A0AF060F847F2A5
:1012A000305000E022E002F0EFFA47F2305002F056
:1012B000EBFA9FED1B0A104880ED100A90ED010A31
:1012C000F0EE400A9FED0D1A9FED0C0A0BF009F9A4
:1012D00047F2305002F0D8FA9FED081ADFED070A06
:1012E0009FED060A0BF0FDF800BF00BFFEF7DCBF64
:1012F000010000200000B442D802002000000000DD
:101300000000C84300809D43CDCC0C40CDCC4C3E6A
:1013100000003443CDCC4CBE666626409A99794095
:10132000CDCC4CBD704700BFFEE700BFFEE700BF5D
:10133000FEE700BFFEE77047704770477047000048
:101340000CB50020019000907648006840F4803091
:101350007449086000BF7348006800F400300090D2
:101360000198401C0190009818B90198B0F5A04F61
:10137000F1D16C48006800F4003010B101200090F9
:1013800001E0002000900098012846D165484030D7
:10139000006840F08050634940310860624800684E
:1013A00040F44040604908605E48083000685D498C
:1013B000083108600846006840F4004008600846AC
:1013C000006840F4A05008605848091F0860081FD2
:1013D000006840F08070091F086000BF5148006835
:1013E00000F000700028F9D040F205705049086004
:1013F0004C480830006820F003004A490831086072
:101400000846006840F00200086000BF4548083008
:10141000006800F00C000828F8D10CBD10B5454854
:10142000006840F47000434908603E48006840F09E
:1014300001003C49086000203A49083108603948F9
:1014400000683D490840374908603C48091D08606C
:10145000081F006820F48020091F0860002031491F
:101460000C310860FFF76CFF4FF0006031498039A4
:10147000086010BD70B50020002202230024022164
:10148000284D08352D6805F00C0020B1042806D041
:10149000082834D107E02A4D2A4E356033E02A4D22
:1014A000284E35602FE01F4D2D1D2D68C5F380544B
:1014B0001C4D2D1D2D6805F03F0154B1224DB5FB8B
:1014C000F1F5184E361D3668C6F3881605FB06F290
:1014D00009E01B4DB5FBF1F5124E361D3668C6F31B
:1014E000881605FB06F20F4D2D1D2D68C5F301452D
:1014F0006D1C6B00B2FBF3F5124E356003E0104D2E
:10150000104E356000BF00BF064D08352D68C5F38D
:1015100003150E4E705D0B4D2D68C540094E3560AC
:1015200070BD0000003802400070004008544007C1
:10153000003C024088ED00E0FFFFF6FE1030002482
:101540000024F4000400002000127A0008000020AB
:101550000948804709480047FEE7FEE7FEE7FEE747
:10156000FEE7FEE7FEE7FEE7FEE7FEE70448054983
:10157000054A064B704700001D1400088901000849
:1015800080030020800900208005002080050020C5
:1015900032490143324A1160704770B5002100237F
:1015A0000F22C4781CB32E4C246804F4E064C4F504
:1015B000E064C4F30721C1F10404E3B20A414478B2
:1015C0009C40E1B28478144021430C07210E254C45
:1015D00005786155047804F01F050124AC400578B6
:1015E0006D11AD0005F1E025C5F8004109E0047872
:1015F00004F01F050124AC401B4D0678761145F818
:10160000264070BD194A0A400243154B1B1F1A6041
:10161000704739B1124A121D12680243104B1B1D4C
:101620001A6006E00E4A121D126882430C4B1B1D05
:101630001A607047042808D14FF0E021096941F091
:1016400004014FF0E022116107E04FF0E021096949
:1016500021F004014FF0E022116170470000FA050B
:101660000CED00E000E400E080E100E080FFFF1FFF
:10167000002041490860091D0860091D0860091D16
:1016800008603E483C4914310860704700213A49DF
:101690008279002A3AD00A46126803689A430B46B8
:1016A0001A600A1D126803689A430B1D1A600279BA
:1016B00011440A6803681A430A602F4A0832126804
:1016C00003689A432C4B08331A601A1D126803688A
:1016D0009A43294B0C331A604279102A0ED11A1FF3
:1016E000126803681A43244B08331A601A1D1268E3
:1016F00003681A43204B0C331A600DE01E494279EF
:1017000011440A6803681A430A6005E0027911442B
:101710000A6803689A430A607047002101600171FA
:101720000C21417100218171704713491031096802
:101730000143114A103211607047014600200E4AE1
:10174000143212680A400AB1012000E000207047FC
:10175000094914310860704701460020064A1432D6
:1017600012680A400AB1012000E0002070470249D7
:101770001431086070470000003C0140FFFF7F000B
:1017800030B943F2DB028100A1F1C0410A6005E0FB
:1017900043F2D2028100A1F1C0410A606FF07042B1
:1017A000411C8900A1F1C0410A608100A1F1C04142
:1017B000C1F804217047D0E901121143C2681143F6
:1017C000026911434269114382691143C26911439D
:1017D000026A1143426A1143826A1143C26A114389
:1017E000026B114302689200A2F1C042116081684D
:1017F00008290BD101688900A1F1C041096841F0B5
:10180000400201688900A1F1C0410A60416B09688A
:10181000426B526841EA0211426B926841EA02212E
:10182000426B928941EA0241426B128A41EA0251BB
:10183000426B127D41EA0261426B92691143026878
:10184000521C9200A2F1C0421160C16AB1F5804FF2
:101850001BD1816B0968826B526841EA0211826B6D
:10186000926841EA0221826B128A41EA0251826B3C
:10187000127D41EA0261826B926911430268920013
:10188000A2F1C042C2F8041107E06FF07042016893
:101890008900A1F1C041C1F8042170470021016015
:1018A0000221416000218160C1600161416181616B
:1018B000C16101624FF4805141624900816200219F
:1018C000C1620163F84941638163704751B182008D
:1018D000A2F1C042126842F001038200A2F1C042AC
:1018E000136009E08200A2F1C0421268EF4B1A4077
:1018F0008300A3F1C0431A60704710280AD1182151
:101900004FF020421166402151664FF0FC31916644
:10191000D16610E01821E64A116040214FF02042C4
:10192000C2F884104FF0FC31E14A083211604FF0E8
:101930002042C2F88C10704730B5002100220023ED
:10194000446844F0080485682C43C5682C43056945
:101950002C43456944EA4524856944EA4531C46914
:101960002468C5696D6844EA0524C5692D8944EA7F
:101970000544C5692D7B44EA0562046A2468056A4A
:101980006D6844EA0524056A2D8944EA0544056A20
:101990002D7B44EA05630468102C05D14FF02044E8
:1019A0002166A266E36608E0C14C21604FF0204446
:1019B000C4F88820BE4C0C34236030BD1021016077
:1019C000002141608160C160016141618161FC2150
:1019D000C2691160C2695160C2699160C269D16017
:1019E000026A1160026A5160026A9160026AD16003
:1019F000704799B1102808D14FF02042126E42F082
:101A000004024FF020431A661DE0A94A126842F012
:101A100004024FF02043C3F8802014E0102809D1BD
:101A20004FF02042126EA14BDB1E1A404FF02043B4
:101A30001A6608E09E4A12689C4BDB1E1A404FF063
:101A40002043C3F88020704799B1102808D14FF087
:101A50002042126E42F040024FF020431A661DE011
:101A6000934A126842F040024FF02043C3F88020AE
:101A700014E0102809D14FF02042126E8B4B3F3BEF
:101A80001A404FF020431A6608E0894A1268874BD3
:101A90003F3B1A404FF02043C3F880207047014677
:101AA0000020102903D14FF02042506F02E0804AFD
:101AB00014321068704718207D49203108600020DA
:101AC0000906C1F8A4004FF0FC30794928310860BC
:101AD000091D0860091D08607047016841F0100188
:101AE000426841EA4221826841EA4231704A20322A
:101AF0001160C1680968C268526841EA0221C2687F
:101B0000128941EA0241C268127B41EA0261684AD5
:101B100028321160016909680269526841EA0221AC
:101B20000269128941EA02410269127B41EA0261BB
:101B30005F4A2C321160416909684269526841EA82
:101B400002214269128941EA02414269127B41EA5B
:101B500002614FF02042C2F8B010704700210160CE
:101B600041608160FC21C2681160C2685160C26836
:101B70009160C268D16002691160026951600269B6
:101B800091600269D16042691160426951604269A5
:101B900091604269D160704748B145492031096878
:101BA00041F004014FF02042C2F8A01009E0404982
:101BB000203109683D4AD21E11404FF02042C2F840
:101BC000A010704710B5F2B1102807D14FF0204394
:101BD0005B6E0B434FF02044636632E0B0F5807FCC
:101BE00008D1334B1B1D1B680B434FF02044C4F836
:101BF000843026E02E4B24331B680B434FF02044E7
:101C0000C4F8A4301DE0102807D14FF020435B6ECC
:101C10008B434FF02044636613E0B0F5807F08D11A
:101C2000234B1B1D1B688B434FF02044C4F88430AA
:101C300007E01F4B24331B688B434FF02044C4F84C
:101C4000A43010BD10B5024600200023102A03D195
:101C50004FF02044636E09E0B2F5807F03D1144C4D
:101C6000241D236802E0124C2434236803EA010493
:101C70000CB1012000E0002010BD102807D14FF06A
:101C80002042526E8A434FF020435A6619E0B0F565
:101C9000807F0FD1064A121D12688A434FF02043FD
:101CA000C3F884200DE0000054360108FEFF0F0049
:101CB000800000A0234A12688A434FF02043C3F8F3
:101CC000A420704770B502460020002300240025A0
:101CD000102A03D14FF02046736E08E0B2F5807FE2
:101CE00003D1184E203E336801E0164E336803EAF4
:101CF000010403EAD10514B10DB1012000E0002078
:101D000070BD102808D14FF02042526E22EAD10255
:101D10004FF020435A6614E0B0F5807F09D1094A9C
:101D2000203A126822EAD1024FF02043C3F88420FF
:101D300007E0044A126822EAD1024FF02043C3F8B8
:101D4000A4207047A40000A010B50446984884421F
:101D500008D10121084600F086FB0021012000F097
:101D600082FB76E09348844208D10121022000F0F2
:101D70007AFB0021022000F076FB6AE08E48844264
:101D800008D10121042000F06EFB0021042000F0A6
:101D90006AFB5EE08948844208D10121082000F0F6
:101DA00062FB0021082000F05EFB52E08448844280
:101DB00008D10121102000F056FB0021102000F076
:101DC00052FB46E07F48844208D10121202000F0E8
:101DD0004AFB0021202000F046FB3AE07A4884428A
:101DE00008D10121402000F03EFB0021402000F0FE
:101DF0003AFB2EE07548844208D10121802000F092
:101E000032FB0021802000F02EFB22E0704884424B
:101E100008D10121801500F026FB0021A01500F05B
:101E200022FB16E06B48844208D10121401500F0E6
:101E30001AFB0021601500F016FB0AE06648844298
:101E400007D10121001500F00EFB0021201500F044
:101E50000AFB10BDF0B50A4600210023002400BF94
:101E60003DE0012505FA01F3156805EA03049C42EB
:101E700034D105684F000326BE40B543056015798F
:101E80004E00B5400668354305601579012D02D036
:101E90001579022D16D185684F000326BE40B54343
:101EA000856055794E00B540866835438560456844
:101EB00001268E40B5434560456896798E40B6B29E
:101EC00035434560C5684F000326BE40B543C56035
:101ED000D5794E00B540C6683543C560491C102908
:101EE000BFD3F0BD4FF6FF71016000210171417158
:101EF0008171C171704708B54FF480320092009A29
:101F00000A430092009AC261C161009AC261C2692B
:101F10000092C269009208BD0246002013690B407E
:101F20000BB1012000E0002070470146086980B233
:101F300070470246002053690B400BB1012000E0BE
:101F4000002070470146486980B27047018370479E
:101F5000418370470AB1018300E0418370474161CA
:101F6000704742694A4042617047F0B5002300243F
:101F70004D07ED0E02FA05F3CE1000F1200555F8DD
:101F800026504E07F70E0F26BE40B543CF1000F186
:101F9000200646F82750CE1000F1200555F82650AF
:101FA00045EA0304CE1000F1200545F82640F0BDB7
:101FB000000002400004024000080240000C024001
:101FC000001002400014024000180240001C0240B1
:101FD000002002400024024000280240F948006826
:101FE00040F00100F74908600020F6490831086018
:101FF000F4480068F4490840F2490860F348091DB4
:102000000860F348EF4984310860F0481038091D32
:102010000860EC48006820F48020EA49086000204D
:10202000E8490C310860E7498C31086070470021AD
:10203000E44A921C117011460870704710B50146B1
:102040000022002300204A11012A02D1DD4C23681E
:1020500008E0022A03D1DB4C7034236802E0D94C3B
:102060007434236801F01F02012494401C400CB119
:10207000012000E0002010BD38B5002000900024B1
:10208000002500BF3120FFF7D9FF05460098401C0E
:1020900000900098B0F5A04F01D0002DF2D0312073
:1020A000FFF7CCFF08B1012400E00024204638BD32
:1020B00001460020C34A106820F0F80040EAC10041
:1020C00010607047C349086070470021BD4A7032F4
:1020D00011701170012802D004280AD104E00121F6
:1020E000B84A7032117005E00521B64A703211709D
:1020F00000E000BF00BF7047B7490860704770B587
:10210000049C41EA82150126C6EB530645EA0645C2
:10211000054345EA0465AB4E361D356070BDAD49DB
:1021200008667047820142EA0172A64B84331A6046
:102130007047A8498866704710B5830143EA016378
:1021400043EA02739F4C8834236010BDA14908679D
:102150007047A049C864704702460020994B083375
:10216000186820F0EC6042EA01031843954B0833ED
:102170001860704702460020924B0833186820F020
:10218000784042EA010318438E4B083318607047C9
:10219000014600208B4A0832106820F003000843F3
:1021A0001060704787480830006800F00C007047E6
:1021B00001460020834A0832106820F0F0000843EE
:1021C00010607047014600207E4A0832106820F4F3
:1021D000E05008431060704701460020794A0832F9
:1021E000106820F4604040EAC10010607047F0B50C
:1021F000002100220024022500260223714F083707
:102200003F6807F00C0121B1042905D0082937D116
:1022100005E0724F076036E0714F076033E0694FA9
:102220003F1D3F68C7F38056664F3F1D3F6807F06C
:102230003F036EB16A4FB7FBF3F7DFF888C10CF1CB
:10224000040CDCF800C0CCF3881C07FB0CF40CE099
:10225000624FB7FBF3F7DFF86CC10CF1040CDCF84C
:1022600000C0CCF3881C07FB0CF4564F3F1D3F68A1
:10227000C7F301477F1C7D00B4FBF5F7076002E060
:10228000564F076000BF00BF4E4F08373F6807F04A
:10229000F0010909534F7A5C0768D7404760494FFE
:1022A00008373F6807F4E051890A4E4F7A5C476867
:1022B000D7408760434F08373F6807F46041490BB8
:1022C000484F7A5C4768D740C760F0BD002100F4F2
:1022D0004072B2F5407F0AD13A4A0832116821F4BF
:1022E000F811414A02401143364A08321160354A1A
:1022F00070321268C0F30B031A43324B70331A600A
:10230000704735494439086070473349403908609F
:10231000704736490860704701460020294A8C32D0
:10232000106820F01F004A1E1043264A8C321060AD
:10233000704701460020234A8C32106820F4F85080
:102340004A1E40EA02201F4A8C3210607047014644
:1023500000201C4A8C32106820F4401008431060A2
:10236000704701460020174A8C32106820F4400064
:1023700008431060704701460020124A8C321068F2
:1023800020F44030084310607047194908607047D6
:1023900039B10C4A3032126802430A4B30331A60AA
:1023A00006E0084A303212688243064B30331A6026
:1023B0007047F9B1034A343212680243014B343397
:1023C0001A601CE000380240FFFFF6EA10300024DB
:1023D0000030002000004742800E47420024F400F5
:1023E00000127A0018000020FFFCFF0F5C0147423A
:1023F000E01147428F4A126882438E4B1A60704741
:1024000039B18C4A121D126802438A4B1B1D1A6097
:1024100006E0884A121D12688243864B1B1D1A6013
:10242000704739B1834A0C3212680243814B0C3336
:102430001A6006E07F4A0C32126882437D4B0C33EF
:102440001A60704739B17B4A103212680243794BE7
:1024500010331A6006E0774A103212688243754BD7
:1024600010331A60704739B1724A243A1268024335
:10247000704B243B1A6006E06E4A243A126882438D
:102480006C4B243B1A60704739B16A4A203A126893
:102490000243684B203B1A6006E0664A203A126805
:1024A0008243644B203B1A60704739B1614A1C3A41
:1024B000126802435F4B1C3B1A6006E05D4A1C3AFF
:1024C000126882435B4B1C3B1A60704739B1594A12
:1024D000143A12680243574B143B1A6006E0554AFF
:1024E000143A12688243534B143B1A60704739B157
:1024F000504A103A126802434E4B103B1A6006E0F5
:102500004C4A103A126882434A4B103B1A6070479B
:1025100039B1484A1C3212680243464B1C331A60D8
:1025200006E0444A1C3212688243424B1C331A6054
:10253000704739B13F4A2032126802433D4B203385
:102540001A6006E03B4A203212688243394B20333E
:102550001A60704739B1374A243212680243354B4A
:1025600024331A6006E0334A243212688243314B26
:1025700024331A60704739B12E4A2C321268024354
:102580002C4B2C331A6006E02A4A2C321268824304
:10259000284B2C331A60704739B1264A3032126802
:1025A0000243244B30331A6006E0224A303212686C
:1025B0008243204B30331A607047012808D11D49EF
:1025C0003C31096841F008011A4A3C32116007E0C9
:1025D00018493C31096821F00801164A3C32116063
:1025E000704739B1134A273A12780243114B273BFF
:1025F0001A7006E00F4A273A127882430D4B273BA8
:102600001A7070470B484030006840F080700949EC
:1026100040310860704701460020064A283A126897
:102620000A400AB1012000E0002070470149263924
:10263000087070473438024010B501218803FFF755
:1026400056FF00214FF48040FFF751FF10BD1C4999
:10265000086070471B490862704730B500228B073D
:102660001C0F0F2303FA04F2154B08338C1053F898
:1026700024309343124C08348D1044F825302346FF
:102680008C1053F824308C07240F00FA04F42343F1
:102690000B4C08348D1044F8253030BD0949DC312D
:1026A00008607047084908607047002004492031DD
:1026B000096801F4807109B1012000E00020704731
:1026C00000380140000027420004274210B50446AC
:1026D000FE48844208D101210846FFF708FF002187
:1026E0000120FFF704FF9DE0B4F1804F08D10121E4
:1026F0000846FFF7EBFE00210120FFF7E7FE91E01F
:10270000F348844208D101210220FFF7DFFE0021B7
:102710000220FFF7DBFE85E0EE48844208D101216C
:102720000420FFF7D3FE00210420FFF7CFFE79E05D
:10273000E948844208D101210820FFF7C7FE0021A3
:102740000820FFF7C3FE6DE0E448844208D1012170
:102750001020FFF7BBFE00211020FFF7B7FE61E05D
:10276000DF48844208D101212020FFF7AFFE00217D
:102770002020FFF7ABFE55E0DA48844208D1012162
:102780000220FFF7B4FE00210220FFF7B0FE49E06F
:10279000D548844209D101210804FFF7A8FE002191
:1027A0004FF48030FFF7A3FE3CE0D048844209D1CB
:1027B00001214804FFF79BFE00214FF40030FFF792
:1027C00096FE2FE0CA48844209D101218804FFF710
:1027D0008EFE00214FF48020FFF789FE22E0C548DD
:1027E000844208D101214020FFF770FE00214020E3
:1027F000FFF76CFE16E0C048844208D1012180201A
:10280000FFF764FE00218020FFF760FE0AE0BB486E
:10281000844207D101218015FFF758FE0021A01541
:10282000FFF754FE10BD00220288A84B98420ED03C
:10283000AC4B98420BD0B0F1804F08D0A44B9842DB
:1028400005D0A44B984202D0A34B984204D14FF636
:102850008F731A404B881A43A04B984207D0A04B65
:10286000984204D04FF6FF431A400B891A43028066
:102870004B68C3620B880385944B984202D0994BF6
:10288000984201D18B7A03860123838270474FF0EF
:10289000FF314160002101800181418081727047D8
:1028A0000185828270470A46002101884FF68F73A6
:1028B000194011430180704741627047C1627047FF
:1028C0000146486A70470146088D704721B1028869
:1028D00042F00202028004E002884FF6FD731A40C3
:1028E0000280704721B1028842F00402028004E0B5
:1028F00002884FF6FB731A400280704721B10288AC
:1029000042F08002028004E002884FF67F731A4092
:102910000280704702884FF6F7731A4002800288DF
:102920000A430280704702884FF6FF431A40028034
:1029300002880A430280704721B1028842F00102F6
:10294000028004E002884FF6FE731A40028070474E
:1029500070B5002400220023058C4FF6FE7635402A
:102960000584028C8388048B4FF68F752C40B51E2E
:102970002C400D882C43751E2A408D892A434D8892
:102980002A43524DA84202D0564DA84213D14FF6C9
:10299000F7752A40CD892A434FF6FB752A408D886A
:1029A0002A434FF6FF652B404FF6FF552B400D8A0B
:1029B0002B434D8A2B43838004838D6845630284B7
:1029C00070BD70B5002400220023058C4FF6EF7611
:1029D00035400584028C8388048B48F6FF752C40B3
:1029E0004FF6FF452C400D884FF6FF7606EA052589
:1029F0002C434FF6DF752A408D8906EA05152A43D8
:102A00004D8806EA05152A43304DA84202D0354DBF
:102A1000A8421DD14FF67F752A40CD894FF6FF762B
:102A200006EA05152A434FF6BF752A408D8806EA47
:102A300005152A434FF6FF352B404FF2FF752B400B
:102A40000D8A06EA85052B434D8A06EA85052B4348
:102A5000838004838D688563028470BD70B5002413
:102A600000220023058C4FF6FF6635400584028C5A
:102A70008388848B4FF68F752C404FF6FC752C4065
:102A80000D882C434FF6FF552A408D894FF6FF766F
:102A900006EA05252A434D8806EA05252A430B4DFB
:102AA000A84202D00F4DA84238D14FF2FF752A40FC
:102AB000CD894FF6FF7606EA05252A434FF6FF3506
:102AC0002A408D8806EA05252A4319E000000140C6
:102AD0000004004000080040000C004000100040CE
:102AE0000014004000040140004001400044014047
:102AF0000048014000180040001C00400020004039
:102B00004EF6FF752B404DF6FF752B400D8A06EAF9
:102B100005152B434D8A06EA05152B4383808483D4
:102B20008D68C563028470BD70B500220023002447
:102B3000058C4EF6FF7635400584038C8488828BA5
:102B400048F6FF752A404FF6FF452A400D884FF69C
:102B5000FF7606EA05252A434DF6FF752B408D8941
:102B600006EA05352B434D8806EA05352B43FE4D15
:102B7000A84202D0FD4DA84208D14BF6FF752C406B
:102B80000D8A4FF6FF7606EA85152C4384808283F2
:102B90008D680564038470BD0021018041808180BF
:102BA00081608181C18101824182704770B5034695
:102BB000002000241846183001258D40ACB21D8C31
:102BC000A5431D8409B108290AD100EB61000568FD
:102BD0004FF68F76354005600568154305600FE0B8
:102BE0000D1FC5F34E052844056848F6FF763540AD
:102BF000056005684FF6FF7606EA02263543056054
:102C000070BD4163704781637047C1637047016461
:102C100070470A460021018B4FF68F73194011430C
:102C2000018370470A460021018B48F6FF73194063
:102C30004FF6FF7303EA02231943018370470A46E4
:102C40000021818B4FF68F731940114381837047A8
:102C50000A460021818B48F6FF7319404FF6FF7337
:102C600003EA02231943818370470A460021018B3E
:102C70004FF6F77319401143018370470A4600214C
:102C8000018B4FF2FF7319404FF6FF7303EA0223E3
:102C90001943018370470A460021818B4FF6F77371
:102CA00019401143818370470A460021818B4FF2FE
:102CB000FF7319404FF6FF7303EA02231943818320
:102CC00070470A460021018B4FF6FB7319401143F0
:102CD000018370470A460021018B4FF6FF331940EC
:102CE0004FF6FF7303EA02231943018370470A4634
:102CF0000021818B4FF6FB7319401143818370478C
:102D00000A460021818B4FF6FF3319404FF6FF73BF
:102D100003EA02231943818370470A460021018B8D
:102D20004FF67F7319401143018370470A46002113
:102D3000018BC1F30E014FF6FF7303EA022319431F
:102D4000018370470A460021818B4FF67F7319403B
:102D50001143818370470A460021818BC1F30E0124
:102D60004FF6FF7303EA02231943818370470A4633
:102D70000021018C4FF6FD73194011430184704707
:102D80000A460021018C4FF6F77319401143018464
:102D900070470A460021018C4FF6DF7319404FF649
:102DA000FF7303EA02131943018470470A460021A6
:102DB000018C4FF67F7319404FF6FF7303EA02133D
:102DC0001943018470470A460021018C4FF6FF53D6
:102DD00019404FF6FF7303EA022319430184704739
:102DE0000A460021018C4FF2FF7319404FF6FF7322
:102DF00003EA02231943018470470A460021018C2B
:102E00004DF6FF7319404FF6FF7303EA023319437F
:102E10000184704730B5002301248C40A3B2048C98
:102E20009C430484048C02FA01F5ADB22C43048463
:102E300030BD30B5002304248C40A3B2048C9C43E5
:102E40000484048C02FA01F5ADB22C43048430BD35
:102E5000828B4FF2FF331A408283828B4FF6FF73CF
:102E600003EA01231A4382837047F0B50C461546E6
:102E7000002100220026078C4EF6FF7C07EA0C0793
:102E80000784818B028C4FF6FF7707EA043640F601
:102E9000FF4739404FF6FF7707EA052739434FF6DA
:102EA000FF7707EA0337394345F6FF773A4046F4A0
:102EB00080573A4381830284F0BD828B4FF6F373CF
:102EC0001A408283828B0A4382837047F0B50C4696
:102ED0001546002100220026078C4FF6FF6C07EAFA
:102EE0000C070784818B028C4FF6FF7707EA0426D4
:102EF0004FF60C7739404FF6FF7707EA03172F4359
:102F000039434FF2FF573A4046F480773A43818382
:102F10000284F0BD028B4FF2FF331A400283028B12
:102F20004FF6FF7303EA01231A4302837047F0B59B
:102F30000C461546002100220026078C4FF6EF7C38
:102F400007EA0C070784018B028C4FF6FF7707EA2C
:102F5000041640F6FF4739404FF6FF7707EA03377C
:102F600039434FF6FF7703E00000014000040140C1
:102F700007EA052739434FF65F773A4046F01007D6
:102F80003A4301830284F0BD028B4FF6F3731A407B
:102F90000283028B0A4302837047F0B50C46154644
:102FA00000210022068C4FF6FE773E400684018BFE
:102FB000028C4FF60C7631407E1C06EA03162E4337
:102FC00031434FF6F576324044F001063243018337
:102FD0000284F0BD70B505460C46208850B923899F
:102FE000A28861882846FFF7D8FFE1882846FFF7C6
:102FF000CBFF25E0208804280AD12389A288618894
:103000002846FFF794FFE1882846FFF783FF17E083
:10301000208808280AD12389A28861882846FFF7DA
:1030200055FFE1882846FFF748FF09E02389A28879
:1030300061882846FFF719FFE1882846FFF708FF57
:1030400070BD002101804180012181800021C1806B
:10305000018170472DE9F04105460C460026012705
:10306000608808B9022600E00026A088012801D166
:10307000022700E001272088A0B92389A28861885F
:103080002846FFF78AFFE1882846FFF77DFF23895E
:103090003A4631462846FFF74AFFE1882846FFF7BF
:1030A00039FF13E02389A28861882846FFF73FFF94
:1030B000E1882846FFF72EFF23893A463146284605
:1030C000FFF76BFFE1882846FFF75EFFBDE8F08160
:1030D0000146486B70470146886B70470146C86BD4
:1030E00070470146086C70470A884B881A438B88E2
:1030F0001A43CB881A430B891A434B891A438B898D
:103100001A43A0F84420704700210180418081804B
:10311000C180018141818181704731B1B0F8442083
:1031200042F40042A0F8442005E0B0F84420C2F385
:103130000E02A0F84420704721B1828842F00402B8
:10314000828004E082884FF6FB731A4082807047C9
:1031500021B1828842F00102828004E082884FF629
:10316000FE731A40828070471AB183890B438381B2
:1031700002E083898B4383817047818270470246D6
:103180000020138A0B400BB1012000E000207047A3
:10319000CA430282704730B5024600200023002453
:1031A000158A05EA0103958905EA010413B10CB1FA
:1031B000012000E0002030BDCA430282704741EA8E
:1031C0000203A0F8483070471AB183890B4383810A
:1031D00002E083898B438381704721B1828842F06A
:1031E0000802828004E082884FF6F7731A408280DA
:1031F000704701894FF6F8721140018170470A4605
:10320000002101894FF68F731940114301817047E6
:1032100030B504460D4629462046FFF7F0FF2089C9
:1032200040F00700208130BD2DE9F04104460D46F5
:1032300016461F46602D06D13B46012231462046E8
:10324000FFF775FE05E03B46012231462046FFF7B9
:10325000A4FE29462046FFF7D2FF208940F0070050
:103260002081BDE8F08130B50C4600210189C9B24A
:103270004FF6FF7505EA03251543254329430181D0
:1032800030BD2DE9F04105460E461746984600240C
:1032900043463A4631462846FFF7E5FF2C894FF66C
:1032A000F870044044F007044FF68F70044044F077
:1032B00070042C81BDE8F081F0B504460D46164639
:1032C0001F463B46324629462046FFF7CCFF208961
:1032D00040F480402081F0BD82884FF68F731A4001
:1032E000828082880A438280704702894FF6F87391
:1032F0001A40028102890A430281704702894FF60F
:103300007F731A40028102890A4302817047F0B537
:103310000C4615461E460021002200230189028B1F
:10332000038C4FF6F877394021434FF6FC473A407B
:1033300040F201173A434FF6DD773B404FF6FF77F7
:1033400007EA06172F433B43018102830384F0BD44
:1033500021B1828842F08002828004E082884FF6A8
:103360007F731A4082807047A0F8501070470000A9
:1033700010B50446FA48844208D101211020FFF715
:10338000B6F800211020FFF7B2F857E0F548844264
:1033900009D101214804FFF799F800214FF40030CA
:1033A000FFF794F84AE0F048844209D101218804EB
:1033B000FFF78CF800214FF48020FFF787F83DE0FD
:1033C000EA48844209D10121C804FFF77FF80021AF
:1033D0004FF40020FFF77AF830E0E548844209D145
:1033E00001210805FFF772F800214FF48010FFF764
:1033F0006DF823E0DF48844208D101212020FFF747
:1034000076F800212020FFF772F817E0DA488442AE
:1034100009D101218807FFF759F800214FF08040BA
:10342000FFF754F80AE0D548844207D1012140054E
:10343000FFF74CF800216005FFF748F810BD2DE9B3
:10344000FF4705460E460024A14600BFA046B089AE
:1034500000B100BF2C8A24F44054F08804432C822D
:10346000AC8941F20C608443B0883189084371898A
:1034700008430443AC81AC8A24F44074B08904430B
:10348000AC826846FEF7B3FEB548854202D0B94823
:10349000854202D1DDF80C9001E0DDF80890A889A2
:1034A00000F4004040B109EBC90000EB091031689D
:1034B0004900B0FBF1F707E009EBC90000EB091088
:1034C00031688900B0FBF1F76420B7FBF0F004012C
:1034D0002009642101FB1078A88900F4004040B164
:1034E000322000EBC800B0FBF1F000F0070004430D
:1034F00008E0322000EB08106421B0FBF1F000F08E
:103500000F0004432C81BDE8FF874FF41651016082
:1035100000218180C18001810C21418100218181B4
:10352000704710B502460020108A20F470600B88A6
:103530004C8823438C882343CC8823431843108230
:1035400010BD0021018041808180C180704721B180
:10355000828942F40052828104E082894DF6FF7331
:103560001A4082817047028B02F47F420283028BF1
:103570000A430283704721B1828942F4004282816A
:1035800003E08289C2F30E028281704721B1828AF0
:1035900042F40062828204E0828A4FF2FF731A4092
:1035A00082827047C1F30802828070470146888892
:1035B000C0F308007047028A4FF6F0731A40028287
:1035C000028A0A430282704721B1828942F00202D4
:1035D000828104E082894FF6FD731A408281704730
:1035E00082894FF2FF731A40828182890A43828165
:1035F0007047028A4FF6DF731A400282028A0A433A
:103600000282704721B1028A42F48042028204E0C1
:10361000028A4BF6FF731A4002827047818941F09B
:1036200001018181704721B1828A42F008028282C1
:1036300004E0828A4FF6F7731A4082827047028B49
:10364000D2B20283028B42EA01220283704721B187
:10365000828A42F02002828204E0828A4FF6DF737F
:103660001A408282704721B1828A42F0100282821F
:1036700004E0828A4FF6EF731A4082827047828A92
:103680004FF6FB731A408282828A0A438282704715
:1036900021B1828A42F00202828204E0828A4FF6DD
:1036A000FD731A40828270471AB1838A0B4383826A
:1036B00002E0838A8B4383827047F0B5034600247F
:1036C00000260025002040F66A17B94200D100BF4D
:1036D0001846C1F3421401F01F06012707FA06F548
:1036E000012C01D10C3004E0022C01D1103000E09B
:1036F00014301AB107682F43076002E00768AF4330
:103700000760F0BD02460020B1F5007F00D100BF88
:1037100013880B400BB1012000E00020704701F43A
:103720000072B2F5007F00D100BFCA43028070472B
:1037300070B50246002400230025002040F66A16DA
:10374000B14200D100BFC1F3421501F01F030126B1
:1037500006FA03F3012D13D19689334017E00000D8
:10376000001001400044004000480040004C004070
:10377000005000400014014000780040007C0040F0
:10378000022D02D1168A334001E0968A33400C1292
:10379000012606FA04F41688344013B10CB1012056
:1037A00000E0002070BD10B50022002340F66A142E
:1037B000A14200D100BF0A1201249440A3B2DC430D
:1037C000048010BD10B504466FF00400FDF732FF11
:1037D000E11704EB5171C1F3C701394A117010466A
:1037E000007800EB4001C1EBC0104FF6FF7101EA19
:1037F000C0003449088010BD0146314A12784A435E
:103800004FF0E0235A6100229A611A46126942F091
:1038100001021A6100BF4FF0E022106900F00102BE
:103820001AB100F48032002AF5D04FF0E02212697C
:1038300022F001024FF0E0231A6100229A617047E2
:103840000146204A12884A434FF0E0235A61002281
:103850009A611A46126942F001021A6100BF4FF0E4
:10386000E022106900F001021AB100F48032002A4F
:10387000F5D04FF0E022126922F001024FF0E02370
:103880001A6100229A61704770B504464FF40770C0
:1038900094FBF0F0C6B24FF4077094FBF0F100FB1C
:1038A000114085B205E04FF40770FFF7C9FF701EA5
:1038B000C6B2002EF7D115B12846FFF7C1FF70BD83
:1038C000280000202A000020014600BF704700BFEA
:1038D000F94A128802F04002002AF9D0C2B2F64B2F
:1038E0009A80704710B588B0044601210846FEF75B
:1038F0004FFD01211020FEF7A5FD07220921EF4809
:10390000FEF733FB07220A21EC48FEF72EFB4FF4AB
:10391000C060069002208DF81C008DF81D0000206C
:103920008DF81E0001208DF81F0006A9E348FEF760
:1039300091FA02940020ADF80C00ADF80E00ADF83D
:103940001000ADF814000C20ADF8120002A9DA48FE
:10395000FFF775FD0121D848FFF7F9FD4021D64852
:10396000FFF7DDFE012240F22551D348FFF7A5FE07
:1039700025208DF8040003208DF805008DF8060041
:1039800001208DF8070001A8FDF707FE012148047A
:10399000FEF747FD07220221C848FEF7E6FA072294
:1039A0000321C648FEF7E1FA0C20069002208DF8AC
:1039B0001C008DF81D0000208DF81E0001208DF8E0
:1039C0001F0006A9BD48FEF745FA02940020ADF895
:1039D0000C00ADF80E00ADF81000ADF814000C208E
:1039E000ADF8120002A9B648FFF729FD0121B4483D
:1039F000FFF7ADFD4021B248FFF791FE012240F2F2
:103A00002551AF48FFF759FE26208DF8040003200A
:103A10008DF8050002208DF8060001208DF80700C2
:103A200001A8FDF7BAFD01210220FEF7B1FC01213A
:103A30008804FEF7F6FC07220A21A248FEF795FA51
:103A400007220B219F48FEF790FA4FF44060069042
:103A500002208DF81C008DF81D0000208DF81E003E
:103A600001208DF81F0006A99648FEF7F3F902948D
:103A70000020ADF80C00ADF80E00ADF81000ADF868
:103A800014000C20ADF8120002A98F48FFF7D7FCF4
:103A900001218D48FFF75BFD40218B48FFF73FFE7A
:103AA000012240F225518848FFF707FE27208DF8B4
:103AB000040002208DF8050001208DF806008DF825
:103AC000070001A8FDF769FD08B010BD10B540F270
:103AD00025517948FFF72CFE00284FD07648FFF794
:103AE00065FDC4B27948008800F40040002845D143
:103AF0007A2C35D0764800787A2816D0734800881A
:103B0000C0F30D0073490C54734800782044724987
:103B100008706E480088401C6C4908800846008880
:103B2000C7282BDD0020088028E0694800787A2823
:103B300024D169480078A04209D16448008840F443
:103B400000406249088001206449087002E00020BA
:103B50005E49088000205E4908705F4908700DE0EA
:103B60007A2C0BD17A205A4908705B4800787A2861
:103B700004D15948007831305749087010BD10B54C
:103B800040F225514E48FFF7D3FD002848D04C485D
:103B9000FFF70CFDC4B25248008800F40040002832
:103BA0003ED1552C0BD14F48007888B900204C49A4
:103BB00008804D49087001204A49087008E0532CDC
:103BC00006D148480078012802D1022045490870F2
:103BD0004448007820B3424800880A2810DA404858
:103BE0000088C0F30D0041490C543F480078204440
:103BF0003D4908703A480088401C394908800FE068
:103C000039480078844208D1012039490870344885
:103C1000008840F400403249088000203149087093
:103C200010BD10B540F225512748FFF781FD00284F
:103C300078D02548FFF7BAFCC4B22E48008800F4BB
:103C4000004000286ED17A2C5ED02B4800787A286C
:103C500016D028480088C0F30D0028490C54284885
:103C6000007820442649087022480088401C2149D9
:103C7000088008460088C72854DD0020088051E0ED
:103C80001D4800787A284DD11D480078A04209D1FE
:103C90001848008840F4004016490880012019495E
:103CA000087002E0002013490880002012490870C3
:103CB0001349087036E00000001001400000024087
:103CC0000044004000040240004800403000002052
:103CD000370000207000002038000020360000204F
:103CE000320000203A0000203B0000203801002074
:103CF00039000020340000203D0000200002002098
:103D00003E0000203C0000207A2C0BD17A2006498E
:103D10000870064800787A2804D1044800783130C9
:103D20000249087010BD00003D0000203E00002048
:103D30007FB505460C4601212020FEF772FB029557
:103D4000A0B2ADF804000020ADF80600ADF80C00FC
:103D500001A9DB48FEF767FD01221146D848FFF7AD
:103D600003FA37208DF8000000208DF801008DF84F
:103D7000020001208DF803006846FDF70EFC0121CA
:103D8000CF48FEF7D9FD7FBD7FB505460C46012122
:103D90000846FEF746FB0295A0B2ADF804000020ED
:103DA000ADF80600ADF80C0001A94FF08040FEF719
:103DB0003AFD012211469007FFF7D6F90121880745
:103DC000FEF7BAFD1C208DF8000001208DF80100DF
:103DD00000208DF8020001208DF803006846FDF7F1
:103DE000DCFB7FBD10B50121B548FFF7D4F90128F0
:103DF0002DD1B4480078182805DAB2480078401C64
:103E0000B049087023E00120AF490870AF4800783E
:103E1000042807D0AD480078052803D0AB480078C7
:103E2000062811D1AA48007802280DD09FEDA90AD2
:103E300006F01FFB9FEDA70A06F0F0FA9FEDA50A1A
:103E400006F0C1FA07F0DCF80120A349086001215F
:103E50009B48FFF7B1F910BD10B52DED048B002084
:103E600008EE100A08EE900A09EE100A002401215B
:103E70008807FFF790F901283FD19848007803217F
:103E800090FBF1F201FB120060B900F0CCF908EEF2
:103E9000100A00F011FA08EE900A00F055FA09EE47
:103EA000100A2AE08D480078032190FBF1F201FB13
:103EB000120001280CD100F0FFF908EE900A00F082
:103EC00043FA09EE100A00F0AEF908EE100A14E009
:103ED00082480078032190FBF1F201FB12000228D6
:103EE0000BD100F031FA09EE100A00F09CF908EE4F
:103EF000100A00F0E1F908EE900A01218807FFF7A7
:103F00005BF919EE100AC11700EB9171891000EEF0
:103F1000101AB8EEC00A7249D1ED080A30EE200A34
:103F200081ED080A18EE900AC11700EB9171891013
:103F300000EE101AB8EEC00A6949D1ED070A30EE5A
:103F4000200A81ED070A18EE100AC11700EB9171E3
:103F5000891000EE101AB8EEC00A6149D1ED060AC8
:103F600030EE200A81ED060AB8EEC80ADFED5D0AE0
:103F700020EE200ADFED5C0A20EE200A084680EDE4
:103F8000090AB8EEE80ADFED570A20EE200ADFED55
:103F9000560A20EE200A80ED0A0AB8EEC90ADFEDC3
:103FA000510A20EE200ADFED500A20EE200A80EDB3
:103FB0000B0A4E48007800285ED04D48008800F477
:103FC0000040E8B34B48C479807940EA042000EE11
:103FD000100AB8EEC00ADFED480A80EE201A9FED05
:103FE000470A21EE000A084680ED020A00203F49F8
:103FF00008703F4908803A4890ED020ADFED400A18
:1040000020EE200ADFED3D0A80EE201A90ED100A26
:1040100031EE000A80ED020A0CE0314890ED020A10
:10402000DFED370A30EE200ADFED350A30EE200AE8
:1040300080ED020A2A4890ED020AB5EEC00A00E0BF
:104040001AE0F1EE10FAE8D30CE0254890ED020AF0
:10405000DFED2B0A30EE600ADFED290A30EE600A50
:1040600080ED020A1E4890ED020ADFED260AB4EE4A
:10407000E00AF1EE10FAE8DC06F001FB17480178DF
:104080000078401C154A107011B904F09CFF13E031
:1040900012480078022802D105F029F80CE00F48F8
:1040A0000078032802D105F029FA05E00B480078D2
:1040B000042801D105F022FBBDEC048B10BD0000EB
:1040C00000140040410000203F00002002000020BA
:1040D0006000002000000000A0824242400000205A
:1040E000D80200207CD9203EAE47E13C39000020B8
:1040F0003200002038010020000000470000344357
:10410000DB0F4940DB0FC9401CB501212020FEF721
:104110003FF9FF20009000208DF8040003208DF867
:10412000050001208DF807006946C048FDF792FEA2
:1041300001210420FEF72CF94FF4E05000900120FB
:104140008DF8040000208DF8060003208DF805008E
:1041500001208DF807006946B548FDF77BFE012177
:104160000220FEF715F94020009001208DF8040090
:1041700000208DF8060003208DF8050001208DF841
:1041800007006946AB48FDF765FE01214020FEF7B8
:10419000FFF84FF46C40009001208DF804000020DF
:1041A0008DF8060003208DF8050001208DF807002A
:1041B0006946A148FDF74EFE1CBDA04A1268D1B267
:1041C00008464206100E9E4AD2F81822D1B2084381
:1041D0004206100E994A083A1268D1B208434206C4
:1041E000100E974AD2F81022D1B208434206100EA0
:1041F000924A103A1268D1B208434206100E904A11
:10420000D2F80822D1B208434206100E8B4A183A5F
:104210001268D1B208434206100E894AD2F8002231
:10422000D1B20843704770B50024002500208549AD
:1042300008608549C1F8AC021420FFF7DDFAFFF7EA
:10424000BCFF054601207F49086000207E49C1F877
:10425000AC020120FFF7D0FAFFF7AFFF04460120C0
:104260007849091D086000207749C1F8B002012093
:10427000FFF7C2FA0120734908310860091F08607E
:1042800000207149C1F8B0020120FFF7B5FA012002
:104290006C4908310860091F086000206A49C1F8AC
:1042A000B0020120FFF7A8FA012066490831086032
:1042B00004EB052000B270BD70B50024002500207D
:1042C000624908606249C1F8AC021420FFF794FA11
:1042D000FFF773FF054601205C49086000205C4938
:1042E000C1F8AC020120FFF787FAFFF766FF04462A
:1042F00001205649091D086000205649C1F898025E
:104300000120FFF779FA0120534908604F49091D40
:10431000086000204F49C1F898020120FFF76CFAAD
:1043200001204D4908604949091D0860002049499C
:10433000C1F898020120FFF75FFA012046490860A2
:1043400004EB052000B270BD70B5002400250020EC
:104350003E490C3108603E49C1F8B8021420FFF70D
:104360004BFAFFF72AFF0546012038490C31086057
:1043700000203749C1F8B8020120FFF73DFAFFF7E6
:104380001CFF0446012031491031086000203049EB
:10439000C1F8BC020120FFF72FFA01202B4914318C
:1043A0000860091F086000202949C1F8BC020120EB
:1043B000FFF722FA0120254914310860091F08601F
:1043C00000202349C1F8BC020120FFF715FA0120A3
:1043D0001E491431086004EB052000B270BD10B511
:1043E00000201849083108600120FFF705FA012074
:1043F0001549C1F8B00210BD10B50020164908607B
:104400000120FFF7F9F901201249C1F8980210BD07
:1044100010B500200D49143108600120FFF7ECF9B8
:1044200001200B49C1F8BC0210BD0000001402407D
:104430000008024000040240001802401C82424270
:1044400000804242A802414200004142A802434289
:1044500000004342008040429882404201B5BDF8CE
:1044600000000090BDF80000F749088008BD01B5C4
:10447000BDF800000090BDF80000F349891C0880D9
:1044800008BD08B5F048801C00880090BDF8000009
:1044900008BD03B5BDF80000EB490880BDF8040075
:1044A0004FF0D841A1F880000CBD01B5BDF8000067
:1044B000FFF7D4FF0520FFF79FF9FFF7E2FF08BDE4
:1044C000E2480089E04908807047DF49891C08807C
:1044D000704730B5014601F01F04C1F34513CA0A05
:1044E000E50205EB43151544A8B230BD00BF01003D
:1044F000A0F10102D0B2FAD1704730B504460D46A2
:10450000D248808849F24131884205D0CF4880881E
:1045100045F21031884214D1CC494889FFF79EFFFB
:104520002012FFF7A4FFE0B2FFF7A1FFC749888977
:10453000FFF794FF2812FFF79AFFE8B2FFF797FF03
:104540005DE0C248808846F6040188421DD1BF481C
:104550008079012804D1BD480088401E001B84B228
:10456000BA494889FFF77AFF2012FFF780FFE0B2CF
:10457000FFF77DFFB5498889FFF770FF2812FFF725
:1045800076FFE8B2FFF773FF39E0B048808845F264
:104590001051884220D1AD494889FFF75FFF2012B2
:1045A000FFF765FFA9494989491C88B2FFF756FF03
:1045B000E0B2FFF75CFFA5498889FFF74FFF28129B
:1045C000FFF755FFA1498989491C88B2FFF746FFCB
:1045D000E8B2FFF74CFF12E09C488079012804D133
:1045E0009A480088401E001B84B298494889214699
:1045F000FFF74FFF954988892946FFF74AFF30BDED
:104600003EB504460D4600200290019000908F4870
:104610000088A04203DD8D484088A84201DC0020CC
:104620003EBD29462046FFF768FF8848808849F24A
:10463000413188420BD08548808846F60401884283
:1046400005D08248808845F21031884203D12E205F
:10465000FFF704FF0DE07D48808845F21051884245
:1046600004D14FF43850FFF7F9FE02E02220FFF7A3
:10467000F5FE7648808849F22031884202D1022036
:10468000FFF734FFFFF7FDFE0220FFF72FFFFFF7D4
:10469000F8FE02906D48808849F2413188420BD083
:1046A0006A48808845F21031884205D06748808882
:1046B00045F21051884210D10220FFF717FFFFF793
:1046C000E0FE0090BDF80800C0B20190BDF8040003
:1046D0004FF6FF7101EA002001905C48808849F2A2
:1046E0002531884216D05948808844F23551884295
:1046F00010D056488088091F88420BD053488088C4
:104700004BF20551884205D0504880884CF2055143
:10471000884202D1BDF8080082E74C48808849F2FF
:10472000413188420BD04948808845F21031884297
:1047300005D04648808845F2105188420DD1BDF819
:104740000800C012C002BDF80410891240EA4110EE
:10475000BDF8001040EAE12062E7BDF80800FFF76D
:10476000B8FE5DE700B53948808849F2413188429A
:104770000BD03648808846F60401884205D033487D
:10478000808845F21031884203D12920FFF766FE68
:104790000FE02E48808845F21051884204D14FF432
:1047A0002450FFF75BFE04E040F273110720FFF78F
:1047B00070FE00BD00B52548808849F2413188422D
:1047C0000BD02248808846F60401884205D01F4855
:1047D000808845F21031884203D12820FFF73EFE41
:1047E0000EE01A48808845F21051884204D14FF4F7
:1047F0002050FFF733FE03E000210720FFF749FEBA
:1048000000BDF0B505460024002710488079012836
:1048100023D10E48808846F6040188421DD0082D19
:104820001AD2DFE805F00406080A0C0E1517062553
:1048300012E0072510E004250EE005250CE0012517
:104840000AE0002508E000007E00006CC80200209D
:10485000032501E0022500BF00BFFE48808849F221
:104860004131884211D0FB48808846F604018842D5
:104870000BD0F848808845F21031884205D0F548C1
:10488000808845F2105188427ED1082D1CD2DFE885
:1048900005F00406090C0F12151800BF14E044F0CF
:1048A000800411E044F040040EE044F0C0040BE04A
:1048B00044F0200408E044F0600405E044F0A00463
:1048C00002E044F0E00400BF00BFE248808845F207
:1048D0001051884202D14FF4585700E03627DD4886
:1048E000808845F21031884207D0DA48808845F246
:1048F0001051884201D044F00804D648808846F61A
:104900000401884201D144F0020421463846FFF7F1
:10491000C0FD04F0200068B1CE480088CD49498828
:10492000884214DACB4806884088CA49088008467D
:1049300046800CE0C7480088C6494988884206DDA1
:10494000C44806884088C349088008464680C14854
:10495000808845F21051884254D1BE494889FFF7FA
:104960007DFD0020FFF783FDBA494989491C88B2C3
:10497000FFF774FD0020FFF77AFDB6494989891CCD
:1049800088B2FFF76BFD00E06BE0B2490988491E71
:10499000C1F30F20FFF76BFDAE494989C91C88B2EE
:1049A000FFF75CFDAB490978491EC8B2FFF75FFD10
:1049B000A8498889FFF752FD0020FFF758FDA54957
:1049C0008989491C88B2FFF749FD0020FFF74FFD98
:1049D000A0498989891C88B2FFF740FD9D49498813
:1049E000491EC1F30F20FFF742FD9A498989C91C6E
:1049F00088B2FFF733FD97498978491EC8B2FFF79F
:104A000036FD55E093494889FFF728FD0020FFF760
:104A10002EFD0020FFF72BFD8E490988491EC1F3AA
:104A20000F20FFF724FD8B490978491EC8B2FFF714
:104A30001EFD88498889FFF711FD0020FFF717FD4B
:104A40000020FFF714FD83494988491EC1F30F2058
:104A5000FFF70DFD7F498978491EC8B2FFF707FDB2
:104A600026E0082D1CD2DFE805F004070A0D0F121E
:104A7000151844F0300413E044F0100410E044F042
:104A800020040DE000BF0BE044F0380408E044F0DF
:104A9000280405E044F0180402E044F0080400BFD4
:104AA00000BF032744F4805421463846FFF7F1FC49
:104AB000F0BD30B504460D4629462046FFF71DFDE2
:104AC000FFF7FEFC644800886449088030BD70B57B
:104AD00004460D4616465F48808849F241318842B7
:104AE00005D05C48808845F21031884214D159497C
:104AF0004889FFF7B3FC2012FFF7B9FCE0B2FFF7DB
:104B0000B6FC54498889FFF7A9FC2812FFF7AFFCCF
:104B1000E8B2FFF7ACFC5DE04E48808845F21051EA
:104B2000884220D14B494889FFF798FC2012FFF7B3
:104B30009EFC48494989491C88B2FFF78FFCE0B2C6
:104B4000FFF795FC43498889FFF788FC2812FFF797
:104B50008EFC40498989491C88B2FFF77FFCE8B286
:104B6000FFF785FC36E03B48808846F60401884222
:104B70001DD138488079012804D136480088401E6C
:104B8000001B84B233494889FFF768FC2012FFF705
:104B90006EFCE0B2FFF76BFC2E498889FFF75EFCE4
:104BA0002812FFF764FCE8B2FFF761FC12E0294825
:104BB0008079012804D127480088401E001B84B258
:104BC000244948892146FFF764FC224988892946FF
:104BD000FFF75FFC1F4800892049891E08804FF0BD
:104BE000D840A0F8806070BD10B50446002C5AD1A2
:104BF00018498871F02008804FF4A070488008465A
:104C0000808849F2413188420BD01248808846F6AC
:104C10000401884205D00F48808845F2103188424F
:104C200022D12C200B4908812A2048812B20888101
:104C30000846808846F60401884205D005488088E9
:104C400045F2103188420ED14FF4A070014908801E
:104C500006E00000C8020020420000208000006C36
:104C60004FF4F070488079E0FE48808845F210519A
:104C7000884210D14FF43050FA4908814FF428503F
:104C800048814FF42C5088814FF4F07008804FF425
:104C90004870488062E02220F24908812020488143
:104CA000212088815AE00120EE4988714FF4A070DC
:104CB0000880F02048800846808849F241318842C7
:104CC00005D0E848808845F21031884207D12C2071
:104CD000E44908812A2048812B2088812BE0E14883
:104CE000808846F60401884207D12C20DD490881DE
:104CF0002B2048812A2088811DE0DA48808845F2EF
:104D00001051884210D14FF43050D64908814FF4E9
:104D1000285048814FF42C5088814FF44870088007
:104D20004FF4F070488006E02220CE49088121200F
:104D3000488120208881CB48808846F6040188423B
:104D400005D0C848808845F21031884206D14FF41A
:104D5000F070C44908804FF4A07048800020FFF72D
:104D600050FD10BD2DE9FF4F04460D4616461F4667
:104D7000A019401E86B2E819401E87B2B948808843
:104D800049F2413188420BD0B648808845F2103153
:104D9000884205D0B348808846F60401884220D175
:104DA000B0494889FFF75AFB2012FFF760FBE0B2D9
:104DB000FFF75DFB3012FFF75AFBF0B2FFF757FB2E
:104DC000A8498889FFF74AFB2812FFF750FBE8B291
:104DD000FFF74DFB3812FFF74AFBF8B2FFF747FB2E
:104DE0007DE0A048808845F21051884244D19D4919
:104DF0004889FFF733FB2012FFF739FB99494989AE
:104E0000491C88B2FFF72AFBE0B2FFF730FB954957
:104E10004989891C88B2FFF721FB3012FFF727FB75
:104E200090494989C91C88B2FFF718FBF0B2FFF717
:104E30001EFB8C498889FFF711FB2812FFF717FB2F
:104E400088498989491C88B2FFF708FBE8B2FFF757
:104E50000EFB84498989891C88B2FFF7FFFA381252
:104E6000FFF705FB7F498989C91C88B2FFF7F6FA6D
:104E7000F8B2FFF7FCFA32E07A48807901280ED1C7
:104E8000A846B94677480088801B401E1FFA80FA62
:104E900074480088001B401E1FFA80FB03E0A046F8
:104EA000B146AA46BB4650200390512002905220A2
:104EB00001905320009041460398FFF7EAFA4946D3
:104EC0000298FFF7E6FA51460198FFF7E2FA5946D1
:104ED0000098FFF7DEFA29462046FFF70EFBBDE8F3
:104EE000FF8F70B5044600265E480588408845431C
:104EF0005C48808846F60401884216D1594880797A
:104F0000012812D10020574988712A2048812B207E
:104F1000888100210846FFF7F0FA01205149887185
:104F20002B2048812A20888103E000210846FFF7D2
:104F3000E4FAFFF7C5FA002602E04B480480761C2D
:104F4000AE42FAD370BD00B5A1B00020209001217F
:104F50007A20FDF71DFA01210846FDF751FA4FF4BA
:104F600000401E9001208DF87C0000208DF87E000E
:104F700002208DF87D0001208DF87F001EA93B489E
:104F8000FCF768FF4CF233701E9002208DF87C0015
:104F900000208DF87E0003208DF87D0001208DF823
:104FA0007F001EA93248FCF755FF4FF680701E9017
:104FB00002208DF87C0000208DF87E0003208DF803
:104FC0007D0001208DF87F001EA92A48FCF742FFD2
:104FD0004FF480501E9002208DF87C0000208DF848
:104FE0007E0003208DF87D0001208DF87F001EA932
:104FF0002148FCF72FFF4FF480501E9002208DF8BF
:105000007C0000208DF87E0003208DF87D000120BB
:105010008DF87F001EA91948FCF71CFF0C22002107
:105020001348FCF7A2FF0C2201211148FCF79DFF59
:105030000C2204210E48FCF798FF0C2205210C4895
:10504000FCF793FF0C2208210948FCF78EFF0C2285
:1050500009210748FCF789FF0C220A210448FCF7C4
:1050600084FF0DE0C80200208000006C00040240B4
:10507000000C0240001002400014024000180240E0
:105080000C220E21FE48FCF770FF0C220F21FC4879
:10509000FCF76BFF0C220721FA48FCF766FF0C2295
:1050A0000821F848FCF761FF0C220921F548FCF7BC
:1050B0005CFF0C220A21F348FCF757FF0C220B215E
:1050C000F048FCF752FF0C221146EE48FCF74DFF6A
:1050D0000C220D21EB48FCF748FF0C220E21E94879
:1050E000FCF743FF0C220F21E648FCF73EFF0C22A1
:1050F0001146E548FCF739FF0C221146E348FCF75E
:1051000034FF0F200890002009903C200A900020D6
:105110000B900C900D900E900920019000200290B1
:105120000820039000200490059006900790062028
:105130000F900020109011901020129000201390DA
:1051400015901490169017904FF4805018900020EE
:1051500019904FF480401A9000201B9008A81C90D2
:1051600001A81D900FA8FCF726FB01210620FCF7E3
:10517000ADFB3220FEF788FB01210020FFF789F903
:105180003220FEF781FB0020FFF78FF9C0498880AD
:1051900008468088FF280ADB084680884FF6FF71A2
:1051A000884204D0BA488088B0F5134F7ED1D3200E
:1051B000FFF754F9FFF765F9B5498880FFF761F902
:1051C000B3498880FFF75DF9B14988800846808837
:1051D0004FF6FF7101EA0020AD498880FFF751F9D1
:1051E000AB4989880843AA4988800846808849F2E3
:1051F0004131884278D0BF20FFF730F9FFF741F9FD
:10520000A3498880FFF73DF9A1498880FFF739F964
:105210009F498880FFF735F99D4988800846808836
:105220004FF6FF7101EA002099498880FFF729F9BC
:10523000974989880843964988800846808846F6B9
:105240000401884250D0D420FFF708F9FFF719F97C
:105250008F498880FFF715F98D498880FFF711F98C
:105260008B498880084680884FF6FF7101EA00204C
:1052700087498880FFF705F985498988084384496B
:1052800088800846808845F2103188422CD04FF43F
:105290005A40FFF7E3F8FFF7F4F87D4988804FF4B0
:1052A0005B40FFF7DBF8FFF7ECF800E01CE0784923
:1052B0008880084680884FF6FF7101EA0020744913
:1052C00088804FF45C40FFF7C9F8FFF7DAF87049BF
:1052D000898808436E49888008468088B0F5004F69
:1052E00002D145F2105088806948808849F24131E6
:1052F00088420BD06648808845F21031884205D03C
:105300006348808845F2105188421DD16148006889
:1053100020F00F004FF02041C1F81C010846D0F8E2
:105320001C0120F47060C1F81C010846D0F81C0173
:1053300040F00300C1F81C010846D0F81C0140F4FD
:105340000070C1F81C0128E05148808846F604012D
:10535000884205D04E4880884CF2055188421CD1C5
:105360004C48006820F00F004FF02041C1F81C01AC
:105370000846D0F81C0120F47060C1F81C010846F2
:10538000D0F81C0140F00A00C1F81C010846D0F812
:105390001C0140F44060C1F81C013D4881883EA0DA
:1053A0000CF01EFB3A48808849F2413188427BD19B
:1053B000CF20FFF753F80020FFF759F82098401C42
:1053C0002090C120FFF753F83020FFF750F8ED2070
:1053D000FFF744F86420FFF74AF80320FFF747F887
:1053E0001220FFF744F88120FFF741F8E820FFF78B
:1053F00035F88520FFF73BF81020FFF738F87A20C2
:10540000FFF735F8CB20FFF729F83920FFF72FF801
:105410002C20FFF72CF80020FFF729F83420FFF7A5
:1054200026F80220FFF723F8F720FFF717F82020CF
:10543000FFF71DF8EA20FFF711F80020FFF717F833
:105440000020FFF714F8C020FFF708F81B20FFF733
:105450000EF8C120FFF702F80120FFF708F8C52079
:10546000FEF7FCFF3020FFF702F83020FEF7FFFFC9
:10547000C720FEF7F3FFB720FEF7F9FF362014E050
:10548000000C0240001002400014024000180240CC
:10549000C80200201C0100A0204C43442049443A8B
:1054A00025780D0A00000000B1E0FEF7D7FF482084
:1054B000FEF7DDFF3A20FEF7D1FF5520FEF7D7FFBC
:1054C000B120FEF7CBFF0020FEF7D1FF1A20FEF738
:1054D000CEFFB620FEF7C2FF0A20FEF7C8FFA220CB
:1054E000FEF7C5FFF220FEF7B9FF0020FEF7BFFF71
:1054F0002620FEF7B3FF0120FEF7B9FFE020FEF7FC
:10550000ADFF0F20FEF7B3FF2A20FEF7B0FF2820E3
:10551000FEF7ADFF0820FEF7AAFF0E20FEF7A7FF5B
:105520000820FEF7A4FF5420FEF7A1FFA920FEF7F4
:105530009EFF4320FEF79BFF0A20FEF798FF0F20F7
:10554000FEF795FF0020FEF792FF0020FEF78FFF89
:105550000020FEF78CFF0020FEF789FFE120FEF718
:105560007DFF0020FEF783FF1520FEF780FF172048
:10557000FEF77DFF0720FEF77AFF1120FEF777FF89
:105580000620FEF774FF2B20FEF771FF5620FEF772
:105590006EFF3C20FEF76BFF0520FEF768FF102032
:1055A000FEF765FF0F20FEF762FF3F20FEF75FFF6B
:1055B0003F20FEF75CFF0F20FEF759FF2B20FEF780
:1055C0004DFF0020FEF753FF0020FEF750FF0120A3
:1055D000FEF74DFF3F20FEF74AFF2A20FEF73EFF71
:1055E0000020FEF744FF0020FEF741FF0020FEF7F9
:1055F0003EFFEF20FEF73BFF1120FEF72FFF782044
:10560000FEF742F92920FEF729FF03F05CB8FE48B7
:10561000808846F6040188427ED11120FEF71EFFE5
:105620001420FEF731F9D020FEF718FF0720FEF70F
:105630001EFF4220FEF71BFF1D20FEF718FFD120A2
:10564000FEF70CFF0020FEF712FF1A20FEF70FFFF7
:105650000920FEF70CFFD220FEF700FF0120FEF725
:1056600006FF2220FEF703FFC020FEF7F7FE102002
:10567000FEF7FDFE3B20FEF7FAFE0020FEF7F7FEE8
:105680000220FEF7F4FE1120FEF7F1FEC520FEF722
:10569000E5FE0320FEF7EBFEC820FEF7DFFE00204C
:1056A000FEF7E5FE2520FEF7E2FE2120FEF7DFFEF5
:1056B0000520FEF7DCFE0020FEF7D9FE0A20FEF7EB
:1056C000D6FE6520FEF7D3FE2520FEF7D0FE77201C
:1056D000FEF7CDFE5020FEF7CAFE0F20FEF7C7FEF4
:1056E0000020FEF7C4FEF820FEF7B8FE0120FEF70A
:1056F000BEFEFE20FEF7B2FE0020FEF7B8FE02203E
:10570000FEF7B5FE2020FEF7A9FE3620FEF7A6FE26
:105710000820FEF7ACFE00E02AE03A20FEF79EFEED
:105720005520FEF7A4FE2B20FEF798FE0020FEF782
:105730009EFE0020FEF79BFE0120FEF798FE3F2014
:10574000FEF795FE2A20FEF789FE0020FEF78FFE69
:105750000020FEF78CFE0120FEF789FEDF20FEF719
:1057600086FE7820FEF790F82920FEF777FE4CE7BA
:10577000A548808845F21031884240F07C87ED20B2
:10578000FEF76CFE0120FEF772FEFE20FEF76FFEB4
:10579000EE20FEF763FEDE20FEF769FE2120FEF715
:1057A00066FEF120FEF75AFE0120FEF760FEDF20C4
:1057B000FEF754FE1020FEF75AFEC420FEF74EFE00
:1057C0008F20FEF754FEC620FEF748FE0020FEF7AD
:1057D0004EFEE220FEF74BFEE220FEF748FEE220FE
:1057E000FEF745FEBF20FEF739FEAA20FEF73FFE7A
:1057F000B020FEF733FE0D20FEF739FE0020FEF745
:1058000036FE0D20FEF733FE0020FEF730FE11209D
:10581000FEF72DFE0020FEF72AFE1920FEF727FED8
:105820000020FEF724FE2120FEF721FE0020FEF7D7
:105830001EFE2D20FEF71BFE0020FEF718FE3D2069
:10584000FEF715FE0020FEF712FE5D20FEF70FFEAC
:105850000020FEF70CFE5D20FEF709FE0020FEF79B
:1058600006FEB120FEF7FAFD8020FEF700FE0020C4
:10587000FEF7FDFD8B20FEF7FAFD0020FEF7F7FD99
:105880009620FEF7F4FD0020FEF7F1FDB220FEF7B2
:10589000E5FD0020FEF7EBFD0020FEF7E8FD02200D
:1058A000FEF7E5FD0020FEF7E2FD0320FEF7DFFD39
:1058B0000020FEF7DCFDB320FEF7D0FD0020FEF750
:1058C000D6FD0020FEF7D3FD0020FEF7D0FD00201E
:1058D000FEF7CDFD0020FEF7CAFD0020FEF7C7FD54
:1058E0000020FEF7C4FD0020FEF7C1FD0020FEF7FA
:1058F000BEFD0020FEF7BBFD0020FEF7B8FD002036
:10590000FEF7B5FD0020FEF7B2FD0020FEF7AFFD6B
:105910000020FEF7ACFD0020FEF7A9FD0020FEF7F9
:10592000A6FD0020FEF7A3FD0020FEF7A0FD00204D
:10593000FEF79DFD0020FEF79AFD0020FEF797FD83
:105940000020FEF794FD0020FEF791FDB420FEF745
:1059500085FD8B20FEF78BFD0020FEF788FD96204D
:10596000FEF785FD0020FEF782FDA120FEF77FFDFA
:105970000020FEF77CFDB520FEF770FD0220FEF74B
:1059800076FD0020FEF773FD0320FEF770FD00207A
:10599000FEF76DFD0420FEF76AFD0020FEF767FDAF
:1059A000B620FEF75BFD0020FEF761FD0020FEF74C
:1059B0005EFDB720FEF752FD0020FEF758FD0020E7
:1059C000FEF755FD3F20FEF752FD0020FEF74FFD8C
:1059D0005E20FEF74CFD0020FEF749FD6420FEF737
:1059E00046FD0020FEF743FD8C20FEF740FD002021
:1059F000FEF73DFDAC20FEF73AFD0020FEF737FD37
:105A0000DC20FEF734FD01E0C80200200020FEF794
:105A10002EFD7020FEF72BFD0020FEF728FD9020C4
:105A2000FEF725FD0020FEF722FDEB20FEF71FFD0F
:105A30000020FEF71CFDDC20FEF719FD0020FEF71C
:105A400016FDB820FEF70AFD0020FEF710FD00202D
:105A5000FEF70DFD0020FEF70AFD0020FEF707FD12
:105A60000020FEF704FD0020FEF701FD0020FEF7F8
:105A7000FEFC0020FEF7FBFCBA20FEF7EFFC242022
:105A8000FEF7F5FC0020FEF7F2FC0020FEF7EFFC2D
:105A90000020FEF7ECFCC120FEF7E0FC2020FEF722
:105AA000E6FC0020FEF7E3FC5420FEF7E0FC0020BB
:105AB000FEF7DDFCFF20FEF7DAFC0020FEF7D7FC46
:105AC000C220FEF7CBFC0A20FEF7D1FC0020FEF737
:105AD000CEFC0420FEF7CBFC0020FEF7C8FCC32060
